{
  "abi": [
    {
      "inputs": [],
      "name": "setUp",
      "outputs": [],
      "stateMutability": "nonpayable",
      "type": "function"
    },
    {
      "inputs": [],
      "name": "test_pass",
      "outputs": [],
      "stateMutability": "pure",
      "type": "function"
    }
  ],
  "bytecode": {
    "object": "0x6080604052348015600f57600080fd5b50606f80601d6000396000f3fe6080604052348015600f57600080fd5b506004361060325760003560e01c80630a9254e41460375780638ab68152146037575b600080fd5b00fea2646970667358221220587966fc54f2a4d9974a36afb6e56fee8cc4e8b65493fc010b608e690876990964736f6c63430008140033",
    "linkReferences": {}
  },
  "methodIdentifiers": {
    "setUp()": "0a9254e4",
    "test_pass()": "8ab68152"
  },
  "id": 1
}